{
  "_format": "hh-sol-artifact-1",
  "contractName": "RedeemPTokenTLOS",
  "sourceName": "contracts/RedeemPTokenTLOS.sol",
  "abi": [
    {
      "inputs": [
        {
          "internalType": "contract IERC20",
          "name": "_ptokenTLOS",
          "type": "address"
        },
        {
          "internalType": "contract IERC20",
          "name": "_oftTLOS",
          "type": "address"
        }
      ],
      "stateMutability": "nonpayable",
      "type": "constructor"
    },
    {
      "inputs": [
        {
          "internalType": "address",
          "name": "owner",
          "type": "address"
        }
      ],
      "name": "OwnableInvalidOwner",
      "type": "error"
    },
    {
      "inputs": [
        {
          "internalType": "address",
          "name": "account",
          "type": "address"
        }
      ],
      "name": "OwnableUnauthorizedAccount",
      "type": "error"
    },
    {
      "anonymous": false,
      "inputs": [
        {
          "indexed": true,
          "internalType": "address",
          "name": "previousOwner",
          "type": "address"
        },
        {
          "indexed": true,
          "internalType": "address",
          "name": "newOwner",
          "type": "address"
        }
      ],
      "name": "OwnershipTransferred",
      "type": "event"
    },
    {
      "anonymous": false,
      "inputs": [
        {
          "indexed": true,
          "internalType": "address",
          "name": "user",
          "type": "address"
        },
        {
          "indexed": false,
          "internalType": "uint256",
          "name": "amount",
          "type": "uint256"
        }
      ],
      "name": "TokensRedeemed",
      "type": "event"
    },
    {
      "inputs": [],
      "name": "oftTLOS",
      "outputs": [
        {
          "internalType": "contract IERC20",
          "name": "",
          "type": "address"
        }
      ],
      "stateMutability": "view",
      "type": "function"
    },
    {
      "inputs": [],
      "name": "owner",
      "outputs": [
        {
          "internalType": "address",
          "name": "",
          "type": "address"
        }
      ],
      "stateMutability": "view",
      "type": "function"
    },
    {
      "inputs": [],
      "name": "ptokenTLOS",
      "outputs": [
        {
          "internalType": "contract IERC20",
          "name": "",
          "type": "address"
        }
      ],
      "stateMutability": "view",
      "type": "function"
    },
    {
      "inputs": [
        {
          "internalType": "uint256",
          "name": "amount",
          "type": "uint256"
        }
      ],
      "name": "redeem",
      "outputs": [],
      "stateMutability": "nonpayable",
      "type": "function"
    },
    {
      "inputs": [],
      "name": "renounceOwnership",
      "outputs": [],
      "stateMutability": "nonpayable",
      "type": "function"
    },
    {
      "inputs": [
        {
          "internalType": "address",
          "name": "newOwner",
          "type": "address"
        }
      ],
      "name": "transferOwnership",
      "outputs": [],
      "stateMutability": "nonpayable",
      "type": "function"
    },
    {
      "inputs": [
        {
          "internalType": "uint256",
          "name": "amount",
          "type": "uint256"
        }
      ],
      "name": "withdrawOFTokens",
      "outputs": [],
      "stateMutability": "nonpayable",
      "type": "function"
    },
    {
      "inputs": [
        {
          "internalType": "uint256",
          "name": "amount",
          "type": "uint256"
        }
      ],
      "name": "withdrawPTokens",
      "outputs": [],
      "stateMutability": "nonpayable",
      "type": "function"
    }
  ],
  "bytecode": "0x60806040523480156200001157600080fd5b50604051620011a4380380620011a483398181016040528101906200003791906200028b565b33600073ffffffffffffffffffffffffffffffffffffffff168173ffffffffffffffffffffffffffffffffffffffff1603620000ad5760006040517f1e4fbdf7000000000000000000000000000000000000000000000000000000008152600401620000a49190620002e3565b60405180910390fd5b620000be816200014960201b60201c565b5081600160006101000a81548173ffffffffffffffffffffffffffffffffffffffff021916908373ffffffffffffffffffffffffffffffffffffffff16021790555080600260006101000a81548173ffffffffffffffffffffffffffffffffffffffff021916908373ffffffffffffffffffffffffffffffffffffffff160217905550505062000300565b60008060009054906101000a900473ffffffffffffffffffffffffffffffffffffffff169050816000806101000a81548173ffffffffffffffffffffffffffffffffffffffff021916908373ffffffffffffffffffffffffffffffffffffffff1602179055508173ffffffffffffffffffffffffffffffffffffffff168173ffffffffffffffffffffffffffffffffffffffff167f8be0079c531659141344cd1fd0a4f28419497f9722a3daafe3b4186f6b6457e060405160405180910390a35050565b600080fd5b600073ffffffffffffffffffffffffffffffffffffffff82169050919050565b60006200023f8262000212565b9050919050565b6000620002538262000232565b9050919050565b620002658162000246565b81146200027157600080fd5b50565b60008151905062000285816200025a565b92915050565b60008060408385031215620002a557620002a46200020d565b5b6000620002b58582860162000274565b9250506020620002c88582860162000274565b9150509250929050565b620002dd8162000232565b82525050565b6000602082019050620002fa6000830184620002d2565b92915050565b610e9480620003106000396000f3fe608060405234801561001057600080fd5b50600436106100885760003560e01c80638d99a82d1161005b5780638d99a82d146100ef5780638da5cb5b1461010b578063db006a7514610129578063f2fde38b1461014557610088565b80633be7ef381461008d5780635e471609146100a95780636c23a757146100c7578063715018a6146100e5575b600080fd5b6100a760048036038101906100a29190610912565b610161565b005b6100b1610252565b6040516100be91906109be565b60405180910390f35b6100cf610278565b6040516100dc91906109be565b60405180910390f35b6100ed61029e565b005b61010960048036038101906101049190610912565b6102b2565b005b6101136103a3565b60405161012091906109fa565b60405180910390f35b610143600480360381019061013e9190610912565b6103cc565b005b61015f600480360381019061015a9190610a41565b6106fe565b005b610169610784565b600160009054906101000a900473ffffffffffffffffffffffffffffffffffffffff1673ffffffffffffffffffffffffffffffffffffffff1663a9059cbb6101af6103a3565b836040518363ffffffff1660e01b81526004016101cd929190610a7d565b6020604051808303816000875af11580156101ec573d6000803e3d6000fd5b505050506040513d601f19601f820116820180604052508101906102109190610ade565b61024f576040517f08c379a000000000000000000000000000000000000000000000000000000000815260040161024690610b68565b60405180910390fd5b50565b600160009054906101000a900473ffffffffffffffffffffffffffffffffffffffff1681565b600260009054906101000a900473ffffffffffffffffffffffffffffffffffffffff1681565b6102a6610784565b6102b0600061080b565b565b6102ba610784565b600260009054906101000a900473ffffffffffffffffffffffffffffffffffffffff1673ffffffffffffffffffffffffffffffffffffffff1663a9059cbb6103006103a3565b836040518363ffffffff1660e01b815260040161031e929190610a7d565b6020604051808303816000875af115801561033d573d6000803e3d6000fd5b505050506040513d601f19601f820116820180604052508101906103619190610ade565b6103a0576040517f08c379a000000000000000000000000000000000000000000000000000000000815260040161039790610bd4565b60405180910390fd5b50565b60008060009054906101000a900473ffffffffffffffffffffffffffffffffffffffff16905090565b6000811161040f576040517f08c379a000000000000000000000000000000000000000000000000000000000815260040161040690610c40565b60405180910390fd5b80600260009054906101000a900473ffffffffffffffffffffffffffffffffffffffff1673ffffffffffffffffffffffffffffffffffffffff166370a08231306040518263ffffffff1660e01b815260040161046b91906109fa565b602060405180830381865afa158015610488573d6000803e3d6000fd5b505050506040513d601f19601f820116820180604052508101906104ac9190610c75565b10156104ed576040517f08c379a00000000000000000000000000000000000000000000000000000000081526004016104e490610d14565b60405180910390fd5b600160009054906101000a900473ffffffffffffffffffffffffffffffffffffffff1673ffffffffffffffffffffffffffffffffffffffff166323b872dd3330846040518463ffffffff1660e01b815260040161054c93929190610d34565b6020604051808303816000875af115801561056b573d6000803e3d6000fd5b505050506040513d601f19601f8201168201806040525081019061058f9190610ade565b6105ce576040517f08c379a00000000000000000000000000000000000000000000000000000000081526004016105c590610db7565b60405180910390fd5b600260009054906101000a900473ffffffffffffffffffffffffffffffffffffffff1673ffffffffffffffffffffffffffffffffffffffff1663a9059cbb33836040518363ffffffff1660e01b815260040161062b929190610a7d565b6020604051808303816000875af115801561064a573d6000803e3d6000fd5b505050506040513d601f19601f8201168201806040525081019061066e9190610ade565b6106ad576040517f08c379a00000000000000000000000000000000000000000000000000000000081526004016106a490610e23565b60405180910390fd5b3373ffffffffffffffffffffffffffffffffffffffff167fcdd4c59de26b3f8623e6012ab9bc32a995eda3452d89c941fc8af6b74276ad38826040516106f39190610e43565b60405180910390a250565b610706610784565b600073ffffffffffffffffffffffffffffffffffffffff168173ffffffffffffffffffffffffffffffffffffffff16036107785760006040517f1e4fbdf700000000000000000000000000000000000000000000000000000000815260040161076f91906109fa565b60405180910390fd5b6107818161080b565b50565b61078c6108cf565b73ffffffffffffffffffffffffffffffffffffffff166107aa6103a3565b73ffffffffffffffffffffffffffffffffffffffff1614610809576107cd6108cf565b6040517f118cdaa700000000000000000000000000000000000000000000000000000000815260040161080091906109fa565b60405180910390fd5b565b60008060009054906101000a900473ffffffffffffffffffffffffffffffffffffffff169050816000806101000a81548173ffffffffffffffffffffffffffffffffffffffff021916908373ffffffffffffffffffffffffffffffffffffffff1602179055508173ffffffffffffffffffffffffffffffffffffffff168173ffffffffffffffffffffffffffffffffffffffff167f8be0079c531659141344cd1fd0a4f28419497f9722a3daafe3b4186f6b6457e060405160405180910390a35050565b600033905090565b600080fd5b6000819050919050565b6108ef816108dc565b81146108fa57600080fd5b50565b60008135905061090c816108e6565b92915050565b600060208284031215610928576109276108d7565b5b6000610936848285016108fd565b91505092915050565b600073ffffffffffffffffffffffffffffffffffffffff82169050919050565b6000819050919050565b600061098461097f61097a8461093f565b61095f565b61093f565b9050919050565b600061099682610969565b9050919050565b60006109a88261098b565b9050919050565b6109b88161099d565b82525050565b60006020820190506109d360008301846109af565b92915050565b60006109e48261093f565b9050919050565b6109f4816109d9565b82525050565b6000602082019050610a0f60008301846109eb565b92915050565b610a1e816109d9565b8114610a2957600080fd5b50565b600081359050610a3b81610a15565b92915050565b600060208284031215610a5757610a566108d7565b5b6000610a6584828501610a2c565b91505092915050565b610a77816108dc565b82525050565b6000604082019050610a9260008301856109eb565b610a9f6020830184610a6e565b9392505050565b60008115159050919050565b610abb81610aa6565b8114610ac657600080fd5b50565b600081519050610ad881610ab2565b92915050565b600060208284031215610af457610af36108d7565b5b6000610b0284828501610ac9565b91505092915050565b600082825260208201905092915050565b7f5769746864726177616c206f662070746f6b656e544c4f53206661696c656400600082015250565b6000610b52601f83610b0b565b9150610b5d82610b1c565b602082019050919050565b60006020820190508181036000830152610b8181610b45565b9050919050565b7f5769746864726177616c206f66206f6674544c4f53206661696c656400000000600082015250565b6000610bbe601c83610b0b565b9150610bc982610b88565b602082019050919050565b60006020820190508181036000830152610bed81610bb1565b9050919050565b7f416d6f756e74206d7573742062652067726561746572207468616e207a65726f600082015250565b6000610c2a602083610b0b565b9150610c3582610bf4565b602082019050919050565b60006020820190508181036000830152610c5981610c1d565b9050919050565b600081519050610c6f816108e6565b92915050565b600060208284031215610c8b57610c8a6108d7565b5b6000610c9984828501610c60565b91505092915050565b7f496e73756666696369656e74204f465420544c4f5320746f6b656e7320696e2060008201527f636f6e7472616374000000000000000000000000000000000000000000000000602082015250565b6000610cfe602883610b0b565b9150610d0982610ca2565b604082019050919050565b60006020820190508181036000830152610d2d81610cf1565b9050919050565b6000606082019050610d4960008301866109eb565b610d5660208301856109eb565b610d636040830184610a6e565b949350505050565b7f50546f6b656e20544c4f53207472616e73666572206661696c65640000000000600082015250565b6000610da1601b83610b0b565b9150610dac82610d6b565b602082019050919050565b60006020820190508181036000830152610dd081610d94565b9050919050565b7f52657761726420746f6b656e207472616e73666572206661696c656400000000600082015250565b6000610e0d601c83610b0b565b9150610e1882610dd7565b602082019050919050565b60006020820190508181036000830152610e3c81610e00565b9050919050565b6000602082019050610e586000830184610a6e565b9291505056fea26469706673582212207faf0f19c2024d7174c5e69238954ae9d3f726373eb793070d45e193cb030b0564736f6c63430008140033",
  "linkReferences": {},
  "deployedLinkReferences": {}
}